:020000040800F2
:1000000090060020D50E0008DD0E0008DF0E000867
:10001000E10E0008E30E0008E50E000800000000F5
:10002000000000000000000000000000E70E0008D3
:10003000E90E000800000000EB0E0008ED0E0008BD
:10004000EF0E0008EF0E0008EF0E0008EF0E00089C
:10005000EF0E0008EF0E0008EF0E0008EF0E00088C
:10006000EF0E0008EF0E0008EF0E0008EF0E00087C
:10007000EF0E0008EF0E0008EF0E0008EF0E00086C
:10008000EF0E0008EF0E0008EF0E0008EF0E00085C
:10009000EF0E0008EF0E0008EF0E0008EF0E00084C
:1000A000EF0E0008EF0E0008EF0E0008EF0E00083C
:1000B000EF0E0008EF0E0008EF0E0008EF0E00082C
:1000C000EF0E0008EF0E0008EF0E0008EF0E00081C
:1000D000EF0E0008EF0E0008EF0E0008EF0E00080C
:1000E000EF0E0008EF0E0008EF0E0008EF0E0008FC
:1000F000EF0E0008EF0E0008EF0E0008EF0E0008EC
:10010000EF0E0008EF0E0008EF0E0008EF0E0008DB
:10011000EF0E0008EF0E0008EF0E0008EF0E0008CB
:10012000EF0E0008EF0E0008EF0E0008EF0E0008BB
:1001300000F002F800F03AF80AA090E8000C8244BF
:100140008344AAF10107DA4501D100F02FF8AFF29C
:10015000090EBAE80F0013F0010F18BFFB1A43F0A5
:10016000010318477C0F00009C0F0000103A24BFC9
:1001700078C878C1FAD8520724BF30C830C144BF0C
:1001800004680C607047000000230024002500264E
:10019000103A28BF78C1FBD8520728BF30C148BFEA
:1001A0000B6070471FB51FBD10B510BD00F061FF9B
:1001B0001146FFF7F7FF00F0B0F900F07FFF03B43E
:1001C000FFF7F2FF03BC00F083FF0000D649086090
:1001D0000868421E0A60FBD270474FF0C041088099
:1001E00070474FF0C0421080D04801807047CF491F
:1001F0000880704730B50D46044600EB02214420CC
:10020000FFF7EFFF29464520FFF7EBFF1946462091
:10021000FFF7E7FF21464E20FFF7E3FF29464F2077
:10022000FFF7DFFF4FF0C0412220088030BD10B53E
:100230000446002140F23F13EF220846FFF7DAFFA1
:10024000A2B2BA4B00214FF4A07400201A80401CC7
:10025000F028FBDB491CA142F7DB10BD10B54FF4C1
:100260007840FFF7E4FFB24C2046FFF7AFFF4FF4B2
:10027000FC60FFF7DCFF2046FFF7A8FF1F20FFF719
:10028000D6FF2046FFF7A2FF4FF6FF70FFF7CFFF24
:100290002046FFF79BFF0020FFF7C9FF2046BDE87F
:1002A000104093E710B5A34C0421204600F047FC12
:1002B0004FF47A60FFF78AFF0421204600F03DFCEE
:1002C00042F21070FFF782FF01210020FFF789FF43
:1002D0004AF6A4010320FFF784FF00210C20FFF75A
:1002E00080FF40F60C010D20FFF77BFF4FF42C51EF
:1002F0000E20FFF776FFB7211E20FFF772FF42F6B0
:100300003F310120FFF76DFF4FF4C0610220FFF77E
:1003100068FF00211020FFF764FF46F270011120F2
:10032000FFF75FFF00210520FFF75BFF002106209C
:10033000FFF757FF4EF61C711620FFF752FF0321FF
:100340001720FFF74EFF40F233210720FFF749FF48
:1003500000210B20FFF745FF00210F20FFF741FF91
:1003600000214120FFF73DFF00214220FFF739FF28
:1003700000214820FFF735FF40F23F13194649207E
:10038000FFF72FFF00214A20FFF72BFF00214B2012
:10039000FFF727FF4FF46F414420FFF722FF0021B2
:1003A0004520FFF71EFF19464620FFF71AFF40F2CF
:1003B00007713020FFF715FF4FF401731946312004
:1003C000FFF70FFF19463220FFF70BFF40F20254F0
:1003D00021463320FFF705FF611D3420FFF701FFA1
:1003E00019463520FFF7FDFE19463620FFF7F9FEC6
:1003F00021463720FFF7F5FE40F2023319463A2036
:10040000FFF7EFFE19463B20FFF7EBFE002123200C
:10041000FFF7E7FE00212420FFF7E3FE4FF4004141
:100420002520FFF7DEFE00214F20FFF7DAFE002136
:100430004E20FFF7D6FE4FF0C0412220088010BDAD
:1004400000B597B00120109000200521CDE91101E1
:1004500013904FF080511490CDE915010821CDE99A
:1004600002011021CDE904100190079009020890C3
:10047000CDE909010B900C900D9010A80E900F90F3
:1004800001A800F08FF80121002000F0C0F917B09A
:1004900000BD38B50121080200F0C4FC012140F282
:1004A000E91000F0C8FC4CF23370ADF800000324F2
:1004B0008DF8024018201F4D8DF80300694628462C
:1004C00000F0D1FA4FF68071ADF8001069461A4875
:1004D00000F0C9FAE814ADF800006946284600F0BB
:1004E000C2FA8020ADF800006946284600F0BBFA49
:1004F0000420ADF800008DF8024010208DF80300B4
:100500006946284600F0AFFA38BD10B5FFF7C1FFC5
:10051000FFF796FFBDE81040C4E600F04BFDFFF783
:10052000F4FFFFF79BFEFCE70000002000000260E4
:10053000404B4C0000140140001801408100A1F123
:10054000C04140B143F2D20008606FF07040486093
:10055000C1F8040170474FF0204243F2DB00106005
:10056000F3E710B5182340244FF020414FF0FC3240
:10057000102805D041F8803F4C608A60CA6010BDE9
:100580000B664C668A66CA6610BD4FF02040182183
:1005900040F8A01F002141604FF0FC318160C16034
:1005A0000161704710B5D0E901121143D0E903236E
:1005B0001A4311434269114382691143C2691143CD
:1005C000026A1143426A1143826A1143C26A1143AB
:1005D000026B114302689200A2F1C042116081686F
:1005E000082907D101688900A1F1C0410A6842F0D9
:1005F00040020A60416BD1E9002342EA03128B6892
:100600008C891B0243EA04431A430B8A42EA0352D1
:100610000B7D896942EA03620A4301688900A1F1FE
:10062000C0414A60C16AB1F5804F08D000686FF0E0
:1006300070418000A0F1C040C0F8041110BD816B72
:10064000D1E9002342EA03128B680C8A1B0243EAB9
:1006500004531A430B7D896942EA036200680A4326
:100660008000A0F1C040C0F8042110BD30B5D0E931
:1006700001121143D0E903231A431143426941EAAD
:100680004221826941EA423141F00804C169D1E95D
:10069000002342EA03220B89097B1B0443EA016120
:1006A0000A43016AD1E9003543EA05230D89097B34
:1006B0002D0445EA01610B4301684FF020401029E9
:1006C00004D040F8804F8260C36030BD046682660B
:1006D000C36630BD10B5D0E9001241EA42218268FC
:1006E000102343EA423211434FF0204242F8A01F48
:1006F000C168D1E9003443EA04230C89097B24044E
:1007000044EA01610B4393600169D1E9003443EA93
:1007100004230C89097B240444EA01610B43D36060
:100720004069D0E9001341EA03210389007B1B04DF
:1007300043EA00600143116110BD10B5002102229F
:10074000C0E900128160C160016141618161D20232
:10075000C161C0E908125200C0E90A210163436B7C
:100760000F221A60436B5A60446BFF23A360446BF3
:10077000E260446B2261446B6261446BA161846BF3
:100780002260846B6260846BA360836BDA60836B2E
:100790001A61836B5A61806B816110BD1021016009
:1007A000002141608160C160016141618161C26974
:1007B000FC211160C2695160C2699160C269D16057
:1007C000026A1160026A5160026A9160006AC16047
:1007D00070470021016041608160C268FC211160A6
:1007E000C2685160C2689160C268D16002691160DC
:1007F00002695160026991600269D16042691160C9
:1008000042695160426991604069C16070478000EF
:10081000A0F1C0400029016802D041F0010101E0CF
:10082000644A1140016070474FF0204251B11028D6
:1008300004D052F8800F40F004000AE0106E40F03F
:1008400004000AE05B49C91E102804D052F8800F4A
:10085000084010607047106E0840106670474FF0F7
:100860002041002851F8A00F02D040F0040002E01F
:10087000504AD21E1040086070474FF0204251B1DC
:10088000102804D052F8800F40F040000AE0106EAB
:1008900040F040000AE047493F39102804D052F8A0
:1008A000800F084010607047106E08401066704757
:1008B0004FF02041102802D0D1F894007047486FC3
:1008C000704710B54FF480744FF0204372B1102878
:1008D00004D0A04205D153F8840F04E0586E0843B9
:1008E0000DE053F8A40F0843186010BD102804D081
:1008F000A04206D153F8840F05E0586E884358662D
:1009000010BD53F8A40F8843EEE7034600204FF0D4
:100910002042102B08D0B3F5807F07D0D2F8A42056
:100920000A4200D001207047526EF9E7D2F88420C5
:10093000F6E74FF02042102807D0B0F5807F08D0AE
:1009400052F8A40F884310607047506E8843506679
:10095000704752F8840FF5E7034600204FF020421D
:10096000102B0CD0B3F5807F0BD0D2F8A4200A4214
:1009700002EAD10102D0002900D001207047526E56
:10098000F5E7D2F88420F2E74FF02042102808D093
:10099000B0F5807F0AD052F8A40F20EAD100106091
:1009A0007047506E20EAD1005066704752F8840FAD
:1009B000F3E70000FEFF0F008F4910B5884206D113
:1009C0000121042000F049FA002104203BE08B497A
:1009D000884206D10121082000F03FFA00210820BA
:1009E00031E08749884206D10121102000F035FA14
:1009F0000021102027E08349884206D101212020D0
:100A000000F02BFA002120201DE07F49884206D10A
:100A10000121402000F021FA0021402013E07B4911
:100A2000884206D10121802000F017FA00218020A1
:100A300009E0774988420AD184150121204600F057
:100A40000CFA00212046BDE8104000F006BA10BDA7
:100A500010B50121084600F000FA0021BDE8104061
:100A6000012000F0FAB9F0B5CC78002204F00F03B1
:100A7000E40601D58C7823430C784FF00F0C14F06A
:100A8000FF0F4FF0010E1BD005680E880EFA02F41E
:100A90002640A64210D196000CFA06F725EA070771
:100AA00003FA06F5CE783D43282E02D0482E02D018
:100AB00002E0446100E00461521C082AE5D30560AD
:100AC0000A88FF2A1CD94468002202F108060EFA9F
:100AD00006F50E882E40AE420ED196000CFA06F7AF
:100AE000BC4303FA06F7CE783C43282E00D145617B
:100AF000CE78482E00D10561521C082AE5D3446007
:100B0000F0BD4FF6FF710180022181700421C17098
:100B100070470246002092680A4200D001207047C8
:100B2000806880B2704702460020D2680A4200D036
:100B300001207047C06880B2704701617047416111
:100B400070470AB10161704741617047C1607047E9
:100B500041F480328261816182618169806970477C
:100B60002C4B10B51A684FF68074224042EA0010F0
:100B70000843186010BD2849C8617047F0B5254C7E
:100B8000002801DAE36900E06368450D2E0185B2B3
:100B9000C0F30157B540C0F30342032F05D0C6028E
:100BA0000AD503269640B34307E023F070626368DA
:100BB00023F07063636002E0AB4343F0706201B105
:100BC0002A43002801DAE261F0BD6260F0BD10B591
:100BD0008A0721F003040F49120F21440F238C6868
:100BE00093409C438C608B68904003438B6010BDA6
:100BF0000949C1F8DC00704700080140000C0140C1
:100C0000001001400014014000180140001C014088
:100C1000002001400000014000002042A54801687A
:100C200041F0010101604168A34A1140416001683F
:100C3000A24A11400160016821F4802101604168ED
:100C400021F4FE0141604FF41F0181607047994912
:100C50000A6822F480320A600A6822F480220A605C
:100C6000B0F5803F07D0B0F5802F03D1086840F47D
:100C7000A02008607047086840F48030F9E7034618
:100C8000002059098B4A01290AD002290AD0516A49
:100C900003F01F02012393400B4200D00120704754
:100CA0001168F5E7116AF3E718B500204FF4A06466
:100CB00000903120FFF7E3FF0099491C0091A14209
:100CC00001D00028F5D03120FFF7D9FF002800D04F
:100CD000012018BD774A116821F0F80141EAC000EF
:100CE00010607047764908607047724B5A68084335
:100CF00022F47C12104358607047714908667047AF
:100D00006C4A516821F00301014351607047694802
:100D1000406800F00C007047664A516821F0F0010D
:100D2000014351607047634A516821F4E061014317
:100D3000516070475F4A516821F4605141EAC00038
:100D4000506070475B4A0029517A01D0014300E0AE
:100D50008143517270475A49C1F8D8007047554ACB
:100D6000516821F4404101435160704751490022CC
:100D700081F8202081F82020012802D0042802D107
:100D8000052081F8200070474E49086070474949A6
:100D90000A6A02430A6270474A4944390860704748
:100DA00030B5444A5168484B11F00C0103D0042976
:100DB00001D0082901D0036012E05168536801F4A2
:100DC00070114FF0020413F4803F04EB914102D004
:100DD00053689B0301D53D4B00E03B4B59430160F9
:100DE00051680F2303EA1111394B5C5C0168E14043
:100DF00041605468072505EA14241C5D21FA04F4B7
:100E00008460546805EAD4241B5DD940C1605268EF
:100E1000032303EA92322E4B1B1F9A5CB1FBF2F1C3
:100E2000016130BD234A0029516901D0014300E02E
:100E30008143516170471F4A0029916901D00143E4
:100E400000E08143916170471A4A0029D16901D0BD
:100E5000014300E08143D1617047164A0029D168FF
:100E600001D0014300E08143D1607047114A00295D
:100E7000116901D0014300E08143116170471149BC
:100E80004039086070470E49C86470470949C87105
:100E900070470848416A41F0807141627047054AD5
:100EA0000146002092680A4200D0012070470149A3
:100EB00088727047001002400000FFF8FFFFF6FE46
:100EC000000042428004424200127A0000093D00C4
:100ED000080000200948804709480047FEE7FEE770
:100EE000FEE7FEE7FEE7FEE7FEE7FEE7FEE7FEE7DA
:100EF00004480549054A064B70470000B50F000835
:100F0000310100089000002090060020900200208F
:100F1000900200200CB500224C480092019201681A
:100F200041F4803101604FF4A063016801F40031A5
:100F300001910099491C0091019911B900999942B8
:100F4000F3D10168890333D50121019140490A6831
:100F500042F010020A600A6822F003020A600A687E
:100F600042F002020A6041684160416841604168A4
:100F700041F480614160416821F47C114160416825
:100F800041F4E8114160016841F08071016001683D
:100F90008901FCD5416821F003014160416841F0BD
:100FA000020141604168C1F381010229FAD10CBDFF
:100FB00001920CBD254810B5016841F001010160A6
:100FC0004168244A114041600168234A1140016090
:100FD000016821F480210160416821F4FE01416033
:100FE0004FF41F018160FFF795FF1C494FF000602F
:100FF000086010BD154A10B55068194B10F00C016F
:10100000184803D0042901D0082901D0036012E058
:101010005168536801F470114FF0020413F4803FDB
:1010200004EB914102D053689B0301D50E4B00E0C5
:101030000B4B5943016051680A4AC1F30311121D59
:10104000515C0268CA40026010BD000000100240FE
:10105000002002400000FFF8FFFFF6FE08ED00E070
:1010600000127A001800002000093D007047704708
:101070007047754600F028F8AE46050069465346AD
:1010800020F00700854618B020B5FFF731FFBDE816
:1010900020404FF000064FF000074FF000084FF0DF
:1010A000000B21F00701AC46ACE8C009ACE8C00970
:1010B000ACE8C009ACE8C0098D4670470446AFF300
:1010C00000802046FFF77BF8004870472C00002086
:1010D00001491820ABBEFEE7260002007047000061
:1010E00000110008000000202C0000006C01000826
:1010F0002C1100082C000020640600008801000864
:1011000000000000020406080000000001020304C1
:10111000010203040607080900A24A0400000000B7
:0C1120000000000001020304060708099B
:0400000508000ED50C
:00000001FF
